{
    "contractName": "VoteFactory",
    "abi": [
        {
            "anonymous": false,
            "inputs": [
                {
                    "indexed": false,
                    "internalType": "uint256",
                    "name": "",
                    "type": "uint256"
                },
                {
                    "indexed": false,
                    "internalType": "contract Vote",
                    "name": "",
                    "type": "address"
                }
            ],
            "name": "CreateVoteSuccess",
            "type": "event"
        },
        {
            "inputs": [
                {
                    "internalType": "string",
                    "name": "name",
                    "type": "string"
                },
                {
                    "internalType": "uint64",
                    "name": "registerTime",
                    "type": "uint64"
                },
                {
                    "internalType": "uint64",
                    "name": "voteStartTime",
                    "type": "uint64"
                },
                {
                    "internalType": "uint64",
                    "name": "voteEndTime",
                    "type": "uint64"
                },
                {
                    "internalType": "bool",
                    "name": "isPrivate",
                    "type": "bool"
                }
            ],
            "name": "CreateVote",
            "outputs": [],
            "stateMutability": "nonpayable",
            "type": "function"
        },
        {
            "inputs": [
                {
                    "internalType": "address",
                    "name": "addr",
                    "type": "address"
                }
            ],
            "name": "GetOwnVote",
            "outputs": [
                {
                    "internalType": "string",
                    "name": "",
                    "type": "string"
                },
                {
                    "internalType": "uint256[]",
                    "name": "",
                    "type": "uint256[]"
                },
                {
                    "internalType": "contract Vote[]",
                    "name": "",
                    "type": "address[]"
                }
            ],
            "stateMutability": "view",
            "type": "function"
        },
        {
            "inputs": [
                {
                    "internalType": "uint256",
                    "name": "index",
                    "type": "uint256"
                }
            ],
            "name": "GetVoteAddressByIndex",
            "outputs": [
                {
                    "internalType": "string",
                    "name": "",
                    "type": "string"
                },
                {
                    "internalType": "contract Vote",
                    "name": "",
                    "type": "address"
                }
            ],
            "stateMutability": "view",
            "type": "function"
        },
        {
            "inputs": [
                {
                    "internalType": "string",
                    "name": "name",
                    "type": "string"
                }
            ],
            "name": "GetVoteAddressByName",
            "outputs": [
                {
                    "internalType": "contract Vote[]",
                    "name": "",
                    "type": "address[]"
                }
            ],
            "stateMutability": "view",
            "type": "function"
        },
        {
            "inputs": [
                {
                    "internalType": "string",
                    "name": "originKey",
                    "type": "string"
                },
                {
                    "internalType": "string",
                    "name": "newKey",
                    "type": "string"
                }
            ],
            "name": "UpdateKey",
            "outputs": [],
            "stateMutability": "nonpayable",
            "type": "function"
        },
        {
            "inputs": [
                {
                    "internalType": "uint256",
                    "name": "",
                    "type": "uint256"
                }
            ],
            "name": "voteList",
            "outputs": [
                {
                    "internalType": "string",
                    "name": "name",
                    "type": "string"
                },
                {
                    "internalType": "contract Vote",
                    "name": "vote",
                    "type": "address"
                }
            ],
            "stateMutability": "view",
            "type": "function"
        }
    ],
    "bytecode": "608060405234801561001057600080fd5b50613c61806100206000396000f3fe60806040523480156200001157600080fd5b50600436106200006a5760003560e01c806319331120146200006f57806356d5f94d14620001a35780639dd7f021146200029f578063a398970314620003cd578063d25bef451462000481578063d400a748146200054f575b600080fd5b620001a1600480360360408110156200008757600080fd5b810190602081018135600160201b811115620000a257600080fd5b820183602082011115620000b557600080fd5b803590602001918460018302840111600160201b83111715620000d757600080fd5b91908080601f0160208091040260200160405190810160405280939291908181526020018383808284376000920191909152509295949360208101935035915050600160201b8111156200012a57600080fd5b8201836020820111156200013d57600080fd5b803590602001918460018302840111600160201b831117156200015f57600080fd5b91908080601f0160208091040260200160405190810160405280939291908181526020018383808284376000920191909152509295506200056f945050505050565b005b6200024d60048036036020811015620001bb57600080fd5b810190602081018135600160201b811115620001d657600080fd5b820183602082011115620001e957600080fd5b803590602001918460018302840111600160201b831117156200020b57600080fd5b91908080601f016020809104026020016040519081016040528093929190818152602001838380828437600092019190915250929550620007e0945050505050565b60408051602080825283518183015283519192839290830191858101910280838360005b838110156200028b57818101518382015260200162000271565b505050509050019250505060405180910390f35b620002c860048036036020811015620002b757600080fd5b50356001600160a01b031662000949565b60405180806020018060200180602001848103845287818151815260200191508051906020019080838360005b838110156200030f578181015183820152602001620002f5565b50505050905090810190601f1680156200033d5780820380516001836020036101000a031916815260200191505b508481038352865181528651602091820191808901910280838360005b83811015620003745781810151838201526020016200035a565b50505050905001848103825285818151815260200191508051906020019060200280838360005b83811015620003b55781810151838201526020016200039b565b50505050905001965050505050505060405180910390f35b620003ed60048036036020811015620003e557600080fd5b503562000d44565b6040518080602001836001600160a01b03166001600160a01b03168152602001828103825284818151815260200191508051906020019080838360005b83811015620004445781810151838201526020016200042a565b50505050905090810190601f168015620004725780820380516001836020036101000a031916815260200191505b50935050505060405180910390f35b620001a1600480360360a08110156200049957600080fd5b810190602081018135600160201b811115620004b457600080fd5b820183602082011115620004c757600080fd5b803590602001918460018302840111600160201b83111715620004e957600080fd5b91908080601f0160208091040260200160405190810160405280939291908181526020018383808284376000920191909152509295505067ffffffffffffffff833581169450602084013581169360408101359091169250606001351515905062000e05565b620003ed600480360360208110156200056757600080fd5b503562001109565b60005b6001836040518082805190602001908083835b60208310620005a65780518252601f19909201916020918201910162000585565b51815160209384036101000a60001901801990921691161790529201948552506040519384900301909220548310159150620006979050578160006001856040518082805190602001908083835b60208310620006155780518252601f199092019160209182019101620005f4565b51815160209384036101000a60001901801990921691161790529201948552506040519384900301909220805490925085915081106200065157fe5b9060005260206000200154815481106200066757fe5b906000526020600020906002020160000190805190602001906200068d92919062001238565b5060010162000572565b506001826040518082805190602001908083835b60208310620006cc5780518252601f199092019160209182019101620006ab565b51815160209384036101000a600019018019909216911617905292019485525060405193849003810184208551909460019450869350918291908401908083835b602083106200072e5780518252601f1990920191602091820191016200070d565b51815160209384036101000a6000190180199092169116179052920194855250604051938490030190922083546200076c94919350909150620012bd565b506001826040518082805190602001908083835b60208310620007a15780518252601f19909201916020918201910162000780565b51815160209384036101000a60001901801990921691161790529201948552506040519384900301909220620007dc92509050600062001300565b5050565b6060806001836040518082805190602001908083835b60208310620008175780518252601f199092019160209182019101620007f6565b51815160209384036101000a6000190180199092169116179052920194855250604080519485900382018520805480840287018401909252818652935091508301828280156200088757602002820191906000526020600020905b81548152602001906001019080831162000872575b5050505050905060608151604051908082528060200260200182016040528015620008bc578160200160208202803683370190505b50905060005b825181101562000941576000838281518110620008db57fe5b602002602001015181548110620008ee57fe5b906000526020600020906002020160010160009054906101000a90046001600160a01b03168282815181106200092057fe5b6001600160a01b0390921660209283029190910190910152600101620008c2565b509392505050565b60608060608060026000866001600160a01b03166001600160a01b03168152602001908152602001600020805480602002602001604051908101604052809291908181526020018280548015620009c057602002820191906000526020600020905b815481526020019060010190808311620009ab575b5050505050905060606040518060200160405280600081525090506060825160405190808252806020026020018201604052801562000a09578160200160208202803683370190505b5090506060835160405190808252806020026020018201604052801562000a3a578160200160208202803683370190505b50905060005b845181101562000d3557835183828151811062000a5957fe5b60200260200101818152505073__$f84af20321a7746fa40fed054bf0d4ff3f$__63c403a8f585600088858151811062000a8f57fe5b60200260200101518154811062000aa257fe5b90600052602060002090600202016000016040518363ffffffff1660e01b8152600401808060200180602001838103835285818151815260200191508051906020019080838360005b8381101562000b0557818101518382015260200162000aeb565b50505050905090810190601f16801562000b335780820380516001836020036101000a031916815260200191505b5083810382528454600260001961010060018416150201909116048082526020909101908590801562000baa5780601f1062000b7e5761010080835404028352916020019162000baa565b820191906000526020600020905b81548152906001019060200180831162000b8c57829003601f168201915b505094505050505060006040518083038186803b15801562000bcb57600080fd5b505af415801562000be0573d6000803e3d6000fd5b505050506040513d6000823e601f3d908101601f19168201604052602081101562000c0a57600080fd5b8101908080516040519392919084600160201b82111562000c2a57600080fd5b90830190602082018581111562000c4057600080fd5b8251600160201b81118282018810171562000c5a57600080fd5b82525081516020918201929091019080838360005b8381101562000c8957818101518382015260200162000c6f565b50505050905090810190601f16801562000cb75780820380516001836020036101000a031916815260200191505b506040525050509350600085828151811062000ccf57fe5b60200260200101518154811062000ce257fe5b906000526020600020906002020160010160009054906101000a90046001600160a01b031682828151811062000d1457fe5b6001600160a01b039092166020928302919091019091015260010162000a40565b50919790965090945092505050565b6000818154811062000d5257fe5b60009182526020918290206002918202018054604080516001831615610100026000190190921693909304601f81018590048502820185019093528281529093509183919083018282801562000dec5780601f1062000dc05761010080835404028352916020019162000dec565b820191906000526020600020905b81548152906001019060200180831162000dce57829003601f168201915b505050600190930154919250506001600160a01b031682565b428467ffffffffffffffff1611801562000e3257508367ffffffffffffffff168367ffffffffffffffff16115b801562000e5257508267ffffffffffffffff168267ffffffffffffffff16115b62000e9b576040805162461bcd60e51b81526020600482015260146024820152732a24a6a2902820a920a6a2aa22a91022a92927a960611b604482015290519081900360640190fd5b600033868686868660008054905060405162000eb79062001323565b6001600160a01b038816815267ffffffffffffffff808716604083015285811660608301528416608082015282151560a082015260c0810182905260e0602080830182815289519284019290925288516101008401918a019080838360005b8381101562000f3057818101518382015260200162000f16565b50505050905090810190601f16801562000f5e5780820380516001836020036101000a031916815260200191505b5098505050505050505050604051809103906000f08015801562000f86573d6000803e3d6000fd5b50604080518082019091528781526001600160a01b0382166020808301919091526000805460018101825590805282518051949550929360029091027f290decd9548b62a8d60345a988386fc84ba6bc95484008f6362f93160ef3e563019262000ff592849291019062001238565b50602091820151600191820180546001600160a01b0319166001600160a01b0390921691909117905560405188519192899282918401908083835b60208310620010515780518252601f19909201916020918201910162001030565b51815160001960209485036101000a8101918216911992909216179091529390910195865260408051968790038201872060008054825460018181018555938352858320918801910155338152600284528281208154815493840182559082528482209087019201919091555490930186526001600160a01b038716908601525080517f6cff65490f9b6eebc183134cde6d008fe8d5e1cec63ef1222e60f551c87617939481900390910192509050a1505050505050565b606060008054831062001152576040805162461bcd60e51b815260206004820152600c60248201526b22a92927a91024a72222ac1760a11b604482015290519081900360640190fd5b600083815481106200116057fe5b9060005260206000209060020201600001600084815481106200117f57fe5b600091825260209182902060029182020160019081015484546040805161010094831615949094026000190190911693909304601f81018590048502830185019093528282526001600160a01b03169290918491830182828015620012285780601f10620011fc5761010080835404028352916020019162001228565b820191906000526020600020905b8154815290600101906020018083116200120a57829003601f168201915b5050505050915091509150915091565b828054600181600116156101000203166002900490600052602060002090601f016020900481019282601f106200127b57805160ff1916838001178555620012ab565b82800160010185558215620012ab579182015b82811115620012ab5782518255916020019190600101906200128e565b50620012b992915062001331565b5090565b828054828255906000526020600020908101928215620012ab5760005260206000209182015b82811115620012ab578254825591600101919060010190620012e3565b508054600082559060005260206000209081019062001320919062001331565b50565b6128da806200135283390190565b6200134e91905b80821115620012b9576000815560010162001338565b9056fe60806040523480156200001157600080fd5b50604051620028da380380620028da833981810160405260e08110156200003757600080fd5b8151602083018051604051929492938301929190846401000000008211156200005f57600080fd5b9083019060208201858111156200007557600080fd5b82516401000000008111828201881017156200009057600080fd5b82525081516020918201929091019080838360005b83811015620000bf578181015183820152602001620000a5565b50505050905090810190601f168015620000ed5780820380516001836020036101000a031916815260200191505b5060409081526020820151908201516060830151608084015160a090940151600080546001600160a01b0319166001600160a01b038b161790559295509093509190426001600160401b038616118015620001595750846001600160401b0316846001600160401b0316115b8015620001775750836001600160401b0316836001600160401b0316115b620001c9576040805162461bcd60e51b815260206004820152601460248201527f54494d4520504152414d45544552204552524f52000000000000000000000000604482015290519081900360640190fd5b8551620001de90600190602089019062000295565b5060408051608081018252426001600160401b0390811680835297811660208301819052968116928201839052949094166060909401849052600280546001600160401b031916909617600160401b600160801b0319166801000000000000000090950294909417600160801b600160c01b031916600160801b909402939093176001600160c01b0316600160c01b909202919091179092556003805460ff191692151592909217909155600455506200033a9050565b828054600181600116156101000203166002900490600052602060002090601f016020900481019282601f10620002d857805160ff191683800117855562000308565b8280016001018555821562000308579182015b8281111562000308578251825591602001919060010190620002eb565b50620003169291506200031a565b5090565b6200033791905b8082111562000316576000815560010162000321565b90565b612590806200034a6000396000f3fe608060405234801561001057600080fd5b50600436106100b45760003560e01c8063d151654411610071578063d1516544146103d5578063de88719214610482578063dfa7b84b146104b3578063e84e6c9c146104bb578063e9acc295146105c1578063f2fde38b1461067c576100b4565b8063349900e9146100b957806360977a731461021f57806362cae857146102cd5780638da5cb5b14610307578063c1f171ae1461032b578063c858500a1461034c575b600080fd5b6100dc600480360360408110156100cf57600080fd5b50803590602001356106a2565b6040518080602001806020018060200180602001858103855289818151815260200191508051906020019060200280838360005b83811015610128578181015183820152602001610110565b50505050905001858103845288818151815260200191508051906020019080838360005b8381101561016457818101518382015260200161014c565b50505050905090810190601f1680156101915780820380516001836020036101000a031916815260200191505b508581038352875181528751602091820191808a01910280838360005b838110156101c65781810151838201526020016101ae565b50505050905001858103825286818151815260200191508051906020019060200280838360005b838110156102055781810151838201526020016101ed565b505050509050019850505050505050505060405180910390f35b610227610baf565b604051808060200188815260200187815260200186815260200185815260200184151515158152602001838152602001828103825289818151815260200191508051906020019080838360005b8381101561028c578181015183820152602001610274565b50505050905090810190601f1680156102b95780820380516001836020036101000a031916815260200191505b509850505050505050505060405180910390f35b610305600480360360808110156102e357600080fd5b50803590602081013590604081013590606001356001600160a01b0316610cd1565b005b61030f611250565b604080516001600160a01b039092168252519081900360200190f35b61033361125f565b6040805192835260208301919091528051918290030190f35b6103056004803603608081101561036257600080fd5b810190602081018135600160201b81111561037c57600080fd5b82018360208201111561038e57600080fd5b803590602001918460018302840111600160201b831117156103af57600080fd5b91935091506001600160401b038135811691602081013582169160409091013516611509565b610305600480360360608110156103eb57600080fd5b81359190810190604081016020820135600160201b81111561040c57600080fd5b82018360208201111561041e57600080fd5b803590602001918460018302840111600160201b8311171561043f57600080fd5b91908080601f0160208091040260200160405190810160405280939291908181526020018383808284376000920191909152509295505091359250611770915050565b61049f6004803603602081101561049857600080fd5b5035611a7b565b604080519115158252519081900360200190f35b6100dc611c65565b6104c3611fbe565b60405180806020018060200180602001848103845287818151815260200191508051906020019080838360005b838110156105085781810151838201526020016104f0565b50505050905090810190601f1680156105355780820380516001836020036101000a031916815260200191505b508481038352865181528651602091820191808901910280838360005b8381101561056a578181015183820152602001610552565b50505050905001848103825285818151815260200191508051906020019060200280838360005b838110156105a9578181015183820152602001610591565b50505050905001965050505050505060405180910390f35b610305600480360360808110156105d757600080fd5b8135916001600160a01b0360208201351691810190606081016040820135600160201b81111561060657600080fd5b82018360208201111561061857600080fd5b803590602001918460018302840111600160201b8311171561063957600080fd5b91908080601f0160208091040260200160405190810160405280939291908181526020018383808284376000920191909152509295505091359250612166915050565b6103056004803603602081101561069257600080fd5b50356001600160a01b03166123dd565b6000546060908190819081906001600160a01b031633146106c257600080fd5b85610a6357846109a857604080516315399bc560e11b815260056004820152905173__$d6f24c050f106cc1b5252fb35421942564$__91632a73378a916024808301926000929190829003018186803b15801561071e57600080fd5b505af4158015610732573d6000803e3d6000fd5b505050506040513d6000823e601f3d908101601f19168201604052608081101561075b57600080fd5b8101908080516040519392919084600160201b82111561077a57600080fd5b90830190602082018581111561078f57600080fd5b82518660208202830111600160201b821117156107ab57600080fd5b82525081516020918201928201910280838360005b838110156107d85781810151838201526020016107c0565b5050505090500160405260200180516040519392919084600160201b82111561080057600080fd5b90830190602082018581111561081557600080fd5b8251600160201b81118282018810171561082e57600080fd5b82525081516020918201929091019080838360005b8381101561085b578181015183820152602001610843565b50505050905090810190601f1680156108885780820380516001836020036101000a031916815260200191505b5060405260200180516040519392919084600160201b8211156108aa57600080fd5b9083019060208201858111156108bf57600080fd5b82518660208202830111600160201b821117156108db57600080fd5b82525081516020918201928201910280838360005b838110156109085781810151838201526020016108f0565b5050505090500160405260200180516040519392919084600160201b82111561093057600080fd5b90830190602082018581111561094557600080fd5b82518660208202830111600160201b8211171561096157600080fd5b82525081516020918201928201910280838360005b8381101561098e578181015183820152602001610976565b505050509050016040525050509350935093509350610ba6565b8460011415610a0357604080516315399bc560e11b815260096004820152905173__$d6f24c050f106cc1b5252fb35421942564$__91632a73378a916024808301926000929190829003018186803b15801561071e57600080fd5b8460021415610a5e57604080516315399bc560e11b815260076004820152905173__$d6f24c050f106cc1b5252fb35421942564$__91632a73378a916024808301926000929190829003018186803b15801561071e57600080fd5b610b79565b8560011415610b795784610ac357604080516315399bc560e11b8152600b6004820152905173__$d6f24c050f106cc1b5252fb35421942564$__91632a73378a916024808301926000929190829003018186803b15801561071e57600080fd5b8460011415610b1e57604080516315399bc560e11b8152600f6004820152905173__$d6f24c050f106cc1b5252fb35421942564$__91632a73378a916024808301926000929190829003018186803b15801561071e57600080fd5b8460021415610b7957604080516315399bc560e11b8152600d6004820152905173__$d6f24c050f106cc1b5252fb35421942564$__91632a73378a916024808301926000929190829003018186803b15801561071e57600080fd5b50506040805160008082526020820181815282840182815260808401909452606083019182529194509250905b92959194509250565b600280546003546004546001805460408051602061010084861615026000190190931697909704601f81018390048302880183019091528087526060966000968796879687968796879691956001600160401b0380871696600160401b8104821696600160801b8204831696600160c01b9092049092169460ff909216939092918991830182828015610c835780601f10610c5857610100808354040283529160200191610c83565b820191906000526020600020905b815481529060010190602001808311610c6657829003601f168201915b50505050509650856001600160401b03169550846001600160401b03169450836001600160401b03169350826001600160401b03169250965096509650965096509650965090919293949596565b6000546001600160a01b03163314610ce857600080fd5b60025442600160801b9091046001600160401b031611610d44576040805162461bcd60e51b81526020600482015260126024820152712727aa102922a3a4a9aa22a9102a24a6a29760711b604482015290519081900360640190fd5b831580610d53575060035460ff165b610d8e5760405162461bcd60e51b815260040180806020018281038252603181526020018061252a6031913960400191505060405180910390fd5b600084610fec5783158015610da35750826001145b15610e4357604080516304df644d60e21b815260056004820152600960248201526001600160a01b0384166044820152905173__$d6f24c050f106cc1b5252fb35421942564$__9163137d9134916064808301926020929190829003018186803b158015610e1057600080fd5b505af4158015610e24573d6000803e3d6000fd5b505050506040513d6020811015610e3a57600080fd5b50519050610fe7565b83158015610e515750826002145b15610ebe57604080516304df644d60e21b815260056004820152600760248201526001600160a01b0384166044820152905173__$d6f24c050f106cc1b5252fb35421942564$__9163137d9134916064808301926020929190829003018186803b158015610e1057600080fd5b836001148015610ece5750826002145b15610f3b57604080516304df644d60e21b815260096004820152600760248201526001600160a01b0384166044820152905173__$d6f24c050f106cc1b5252fb35421942564$__9163137d9134916064808301926020929190829003018186803b158015610e1057600080fd5b836002148015610f4b5750826001145b15610fe757604080516304df644d60e21b815260076004820152600960248201526001600160a01b0384166044820152905173__$d6f24c050f106cc1b5252fb35421942564$__9163137d9134916064808301926020929190829003018186803b158015610fb857600080fd5b505af4158015610fcc573d6000803e3d6000fd5b505050506040513d6020811015610fe257600080fd5b505190505b611214565b846001141561121457831580156110035750826001145b1561107057604080516304df644d60e21b8152600b6004820152600f60248201526001600160a01b0384166044820152905173__$d6f24c050f106cc1b5252fb35421942564$__9163137d9134916064808301926020929190829003018186803b158015610fb857600080fd5b8315801561107e5750826002145b156110eb57604080516304df644d60e21b8152600b6004820152600d60248201526001600160a01b0384166044820152905173__$d6f24c050f106cc1b5252fb35421942564$__9163137d9134916064808301926020929190829003018186803b158015610fb857600080fd5b8360011480156110fb5750826002145b1561116857604080516304df644d60e21b8152600f6004820152600d60248201526001600160a01b0384166044820152905173__$d6f24c050f106cc1b5252fb35421942564$__9163137d9134916064808301926020929190829003018186803b158015610fb857600080fd5b8360021480156111785750826001145b1561121457604080516304df644d60e21b8152600d6004820152600f60248201526001600160a01b0384166044820152905173__$d6f24c050f106cc1b5252fb35421942564$__9163137d9134916064808301926020929190829003018186803b1580156111e557600080fd5b505af41580156111f9573d6000803e3d6000fd5b505050506040513d602081101561120f57600080fd5b505190505b60408051821515815290517f3b0a8ddef325df2bfdfa6b430ae4c8421841cd135bfa8fb5e432f200787520bb9181900360200190a15050505050565b6000546001600160a01b031681565b6040805163048367a760e51b815260056004820152336024820152905160009182918291829173__$d6f24c050f106cc1b5252fb35421942564$__9163906cf4e09160448083019286929190829003018186803b1580156112bf57600080fd5b505af41580156112d3573d6000803e3d6000fd5b505050506040513d6000823e601f3d908101601f1916820160405260608110156112fc57600080fd5b815160208301805160405192949293830192919084600160201b82111561132257600080fd5b90830190602082018581111561133757600080fd5b8251600160201b81118282018810171561135057600080fd5b82525081516020918201929091019080838360005b8381101561137d578181015183820152602001611365565b50505050905090810190601f1680156113aa5780820380516001836020036101000a031916815260200191505b50604081815263048367a760e51b8252600b60048301523360248301525195975073__$d6f24c050f106cc1b5252fb35421942564$__9563906cf4e09550604480830195506000945090925090829003018186803b15801561140b57600080fd5b505af415801561141f573d6000803e3d6000fd5b505050506040513d6000823e601f3d908101601f19168201604052606081101561144857600080fd5b815160208301805160405192949293830192919084600160201b82111561146e57600080fd5b90830190602082018581111561148357600080fd5b8251600160201b81118282018810171561149c57600080fd5b82525081516020918201929091019080838360005b838110156114c95781810151838201526020016114b1565b50505050905090810190601f1680156114f65780820380516001836020036101000a031916815260200191505b5060405250949650919450505050509091565b6000546001600160a01b0316331461152057600080fd5b6002546001600160401b03848116600160401b9092041614806115675750816001600160401b0316836001600160401b0316108015611567575042836001600160401b0316115b6115af576040805162461bcd60e51b815260206004820152601460248201527322a92927a9102922a3a4a9aa22a9102a24a6a29760611b604482015290519081900360640190fd5b6002546001600160401b03838116600160801b9092041614806115f65750826001600160401b0316826001600160401b03161180156115f6575042826001600160401b0316115b61163b576040805162461bcd60e51b815260206004820152601160248201527022a92927a91029aa20a92a102a24a6a29760791b604482015290519081900360640190fd5b6002546001600160401b03828116600160c01b9092041614806116815750816001600160401b0316816001600160401b03161180611681575042816001600160401b0316115b6116c4576040805162461bcd60e51b815260206004820152600f60248201526e22a92927a91022a722102a24a6a29760891b604482015290519081900360640190fd5b6116d060018686612462565b5060408051608081018252600280546001600160401b038082168085529781166020850181905296811694840185905294909416606090920182905267ffffffffffffffff199093169094176fffffffffffffffff00000000000000001916600160401b9093029290921767ffffffffffffffff60801b1916600160801b909202919091176001600160c01b0316600160c01b9092029190911790555050565b60025442600160801b9091046001600160401b0316116117cc576040805162461bcd60e51b81526020600482015260126024820152712727aa102922a3a4a9aa22a9102a24a6a29760711b604482015290519081900360640190fd5b8215806117db575060035460ff165b6118165760405162461bcd60e51b815260040180806020018281038252602c8152602001806124fe602c913960400191505060405180910390fd5b60008361192c5773__$d6f24c050f106cc1b5252fb35421942564$__634e30bb0260053386866040518563ffffffff1660e01b815260040180858152602001846001600160a01b03166001600160a01b0316815260200180602001838152602001828103825284818151815260200191508051906020019080838360005b838110156118ac578181015183820152602001611894565b50505050905090810190601f1680156118d95780820380516001836020036101000a031916815260200191505b509550505050505060206040518083038186803b1580156118f957600080fd5b505af415801561190d573d6000803e3d6000fd5b505050506040513d602081101561192357600080fd5b50519050611a40565b8360011415611a405773__$d6f24c050f106cc1b5252fb35421942564$__634e30bb02600b3386866040518563ffffffff1660e01b815260040180858152602001846001600160a01b03166001600160a01b0316815260200180602001838152602001828103825284818151815260200191508051906020019080838360005b838110156119c45781810151838201526020016119ac565b50505050905090810190601f1680156119f15780820380516001836020036101000a031916815260200191505b509550505050505060206040518083038186803b158015611a1157600080fd5b505af4158015611a25573d6000803e3d6000fd5b505050506040513d6020811015611a3b57600080fd5b505190505b60408051821515815290517f3b0a8ddef325df2bfdfa6b430ae4c8421841cd135bfa8fb5e432f200787520bb9181900360200190a150505050565b60025460009042600160c01b9091046001600160401b0316118015611ab2575060025442600160801b9091046001600160401b0316105b611af4576040805162461bcd60e51b815260206004820152600e60248201526d2727aa102b27aa22902a24a6a29760911b604482015290519081900360640190fd5b6040805163099fbbb960e21b8152600f6004820152336024820152905160009173__$d6f24c050f106cc1b5252fb35421942564$__9163267eeee491604480820192602092909190829003018186803b158015611b5057600080fd5b505af4158015611b64573d6000803e3d6000fd5b505050506040513d6020811015611b7a57600080fd5b5051158015611b8b575060035460ff165b15611b94575060005b6040805163703040c560e11b8152601160048201526012602482015260448101859052336064820152905173__$fe4d8461c711a32d8a994738d055ca712b$__9163e060818a916084808301926020929190829003018186803b158015611bfa57600080fd5b505af4158015611c0e573d6000803e3d6000fd5b505050506040513d6020811015611c2457600080fd5b505160408051821515815290519192507f3b0a8ddef325df2bfdfa6b430ae4c8421841cd135bfa8fb5e432f200787520bb919081900360200190a150919050565b60608060608042600260000160109054906101000a90046001600160401b03166001600160401b031610611cd2576040805162461bcd60e51b815260206004820152600f60248201526ee68a95e7a5a8e69caae5bc80e5a78b60881b604482015290519081900360640190fd5b60608060608073__$d6f24c050f106cc1b5252fb35421942564$__632a73378a60056004016040518263ffffffff1660e01b81526004018082815260200191505060006040518083038186803b158015611d2b57600080fd5b505af4158015611d3f573d6000803e3d6000fd5b505050506040513d6000823e601f3d908101601f191682016040526080811015611d6857600080fd5b8101908080516040519392919084600160201b821115611d8757600080fd5b908301906020820185811115611d9c57600080fd5b82518660208202830111600160201b82111715611db857600080fd5b82525081516020918201928201910280838360005b83811015611de5578181015183820152602001611dcd565b5050505090500160405260200180516040519392919084600160201b821115611e0d57600080fd5b908301906020820185811115611e2257600080fd5b8251600160201b811182820188101715611e3b57600080fd5b82525081516020918201929091019080838360005b83811015611e68578181015183820152602001611e50565b50505050905090810190601f168015611e955780820380516001836020036101000a031916815260200191505b5060405260200180516040519392919084600160201b821115611eb757600080fd5b908301906020820185811115611ecc57600080fd5b82518660208202830111600160201b82111715611ee857600080fd5b82525081516020918201928201910280838360005b83811015611f15578181015183820152602001611efd565b5050505090500160405260200180516040519392919084600160201b821115611f3d57600080fd5b908301906020820185811115611f5257600080fd5b82518660208202830111600160201b82111715611f6e57600080fd5b82525081516020918201928201910280838360005b83811015611f9b578181015183820152602001611f83565b505050509190910160405250959e949d50929b5090995091975050505050505050565b6002546060908190819042600160c01b9091046001600160401b03161061201f576040805162461bcd60e51b815260206004820152601060248201526f2b27aa229024a9902727aa1022a7221760811b604482015290519081900360640190fd5b60608061202a611c65565b50600a5460408051631498561b60e31b815260116004820152602481019290925251929550909350849250839173__$fe4d8461c711a32d8a994738d055ca712b$__9163a4c2b0d8916044808301926000929190829003018186803b15801561209257600080fd5b505af41580156120a6573d6000803e3d6000fd5b505050506040513d6000823e601f3d908101601f1916820160405260208110156120cf57600080fd5b8101908080516040519392919084600160201b8211156120ee57600080fd5b90830190602082018581111561210357600080fd5b82518660208202830111600160201b8211171561211f57600080fd5b82525081516020918201928201910280838360005b8381101561214c578181015183820152602001612134565b505050509050016040525050509450945094505050909192565b6000546001600160a01b0316331461217d57600080fd5b60025442600160801b9091046001600160401b0316116121d9576040805162461bcd60e51b81526020600482015260126024820152712727aa102922a3a4a9aa22a9102a24a6a29760711b604482015290519081900360640190fd5b8315806121e8575060035460ff165b6122235760405162461bcd60e51b815260040180806020018281038252602c8152602001806124fe602c913960400191505060405180910390fd5b6000846122ff576040516327185d8160e11b81526005600482018181526001600160a01b03871660248401526064830185905260806044840190815286516084850152865173__$d6f24c050f106cc1b5252fb35421942564$__94634e30bb0294938a938a938a9360a40190602086019080838360005b838110156122b257818101518382015260200161229a565b50505050905090810190601f1680156122df5780820380516001836020036101000a031916815260200191505b509550505050505060206040518083038186803b158015610fb857600080fd5b8460011415611214576040516327185d8160e11b8152600b600482018181526001600160a01b03871660248401526064830185905260806044840190815286516084850152865173__$d6f24c050f106cc1b5252fb35421942564$__94634e30bb0294938a938a938a9360a40190602086019080838360005b83811015612390578181015183820152602001612378565b50505050905090810190601f1680156123bd5780820380516001836020036101000a031916815260200191505b509550505050505060206040518083038186803b1580156111e557600080fd5b6000546001600160a01b031633146123f457600080fd5b6001600160a01b03811661240757600080fd5b600080546040516001600160a01b03808516939216917f8be0079c531659141344cd1fd0a4f28419497f9722a3daafe3b4186f6b6457e091a3600080546001600160a01b0319166001600160a01b0392909216919091179055565b828054600181600116156101000203166002900490600052602060002090601f016020900481019282601f106124a35782800160ff198235161785556124d0565b828001600101855582156124d0579182015b828111156124d05782358255916020019190600101906124b5565b506124dc9291506124e0565b5090565b6124fa91905b808211156124dc57600081556001016124e6565b9056fe564f544552205245474953544552204953204e4f54204e454544454420494e205055424c494320564f54452e564f54455220535441545553204348414e4745204953204e4f54204e454544454420494e205055424c494320564f54452ea2646970667358221220f46afb828f278e6f8f35f7c40cd93bd604bea9ebca0882e764a2c929743ea7df64736f6c63430006040033a26469706673582212207f57678622de344d95fbb2513c730f201c02d091181ff22ed27f800d08c9729f64736f6c63430006040033",
    "sourcePath": "e:/Graduate/BlockChainVote/Solc/VoteFactory.sol",
    "compiler": {
        "name": "solc",
        "version": "0.6.4+commit.1dca32f3"
    },
    "functionHashes": {
        "CreateVote(string,uint64,uint64,uint64,bool)": "d25bef45",
        "GetOwnVote(address)": "9dd7f021",
        "GetVoteAddressByIndex(uint256)": "d400a748",
        "GetVoteAddressByName(string)": "56d5f94d",
        "UpdateKey(string,string)": "19331120",
        "voteList(uint256)": "a3989703"
    },
    "gasEstimates": {
        "creation": {
            "codeDepositCost": "3091400",
            "executionCost": "3412",
            "totalCost": "3094812"
        },
        "external": {
            "CreateVote(string,uint64,uint64,uint64,bool)": "infinite",
            "GetOwnVote(address)": "infinite",
            "GetVoteAddressByIndex(uint256)": "infinite",
            "GetVoteAddressByName(string)": "infinite",
            "UpdateKey(string,string)": "infinite",
            "voteList(uint256)": "infinite"
        }
    }
}